{"contracts/VotingSystem.sol":{"VotingSystem":{"abi":[{"anonymous":false,"inputs":[{"indexed":true,"internalType":"uint256","name":"articleId","type":"uint256"},{"indexed":false,"internalType":"uint256","name":"timestamp","type":"uint256"}],"name":"ArticleFrozen","type":"event"},{"anonymous":false,"inputs":[{"indexed":true,"internalType":"uint256","name":"articleId","type":"uint256"},{"indexed":false,"internalType":"uint256","name":"timestamp","type":"uint256"}],"name":"ArticleUnfrozen","type":"event"},{"anonymous":false,"inputs":[{"indexed":true,"internalType":"address","name":"previousOwner","type":"address"},{"indexed":true,"internalType":"address","name":"newOwner","type":"address"}],"name":"OwnershipTransferred","type":"event"},{"anonymous":false,"inputs":[{"indexed":true,"internalType":"uint256","name":"articleId","type":"uint256"},{"indexed":true,"internalType":"address","name":"voter","type":"address"},{"indexed":false,"internalType":"bool","name":"isUpvote","type":"bool"},{"indexed":false,"internalType":"uint256","name":"timestamp","type":"uint256"}],"name":"VoteCast","type":"event"},{"inputs":[],"name":"MAX_VOTES_PER_WINDOW","outputs":[{"internalType":"uint256","name":"","type":"uint256"}],"stateMutability":"view","type":"function"},{"inputs":[],"name":"VOTE_COOLDOWN","outputs":[{"internalType":"uint256","name":"","type":"uint256"}],"stateMutability":"view","type":"function"},{"inputs":[],"name":"VOTE_WINDOW","outputs":[{"internalType":"uint256","name":"","type":"uint256"}],"stateMutability":"view","type":"function"},{"inputs":[{"internalType":"uint256","name":"_articleId","type":"uint256"}],"name":"freezeArticle","outputs":[],"stateMutability":"nonpayable","type":"function"},{"inputs":[{"internalType":"uint256","name":"_articleId","type":"uint256"}],"name":"getArticleVotes","outputs":[{"internalType":"uint256","name":"upvotes","type":"uint256"},{"internalType":"uint256","name":"downvotes","type":"uint256"}],"stateMutability":"view","type":"function"},{"inputs":[{"internalType":"uint256","name":"_articleId","type":"uint256"},{"internalType":"address","name":"_user","type":"address"}],"name":"getUserVote","outputs":[{"internalType":"bool","name":"isUpvote","type":"bool"},{"internalType":"uint256","name":"timestamp","type":"uint256"}],"stateMutability":"view","type":"function"},{"inputs":[{"internalType":"uint256","name":"_articleId","type":"uint256"}],"name":"getVotesInTimeWindow","outputs":[{"internalType":"uint256","name":"","type":"uint256"}],"stateMutability":"view","type":"function"},{"inputs":[{"internalType":"uint256","name":"_articleId","type":"uint256"}],"name":"isArticleFrozen","outputs":[{"internalType":"bool","name":"","type":"bool"}],"stateMutability":"view","type":"function"},{"inputs":[],"name":"owner","outputs":[{"internalType":"address","name":"","type":"address"}],"stateMutability":"view","type":"function"},{"inputs":[],"name":"renounceOwnership","outputs":[],"stateMutability":"nonpayable","type":"function"},{"inputs":[{"internalType":"address","name":"newOwner","type":"address"}],"name":"transferOwnership","outputs":[],"stateMutability":"nonpayable","type":"function"},{"inputs":[{"internalType":"uint256","name":"_articleId","type":"uint256"}],"name":"unfreezeArticle","outputs":[],"stateMutability":"nonpayable","type":"function"},{"inputs":[{"internalType":"uint256","name":"_articleId","type":"uint256"},{"internalType":"bool","name":"_isUpvote","type":"bool"}],"name":"vote","outputs":[],"stateMutability":"nonpayable","type":"function"}],"evm":{"bytecode":{"linkReferences":{},"object":"608060405234801561001057600080fd5b5061002d61002261003960201b60201c565b61004160201b60201c565b60018081905550610105565b600033905090565b60008060009054906101000a900473ffffffffffffffffffffffffffffffffffffffff169050816000806101000a81548173ffffffffffffffffffffffffffffffffffffffff021916908373ffffffffffffffffffffffffffffffffffffffff1602179055508173ffffffffffffffffffffffffffffffffffffffff168173ffffffffffffffffffffffffffffffffffffffff167f8be0079c531659141344cd1fd0a4f28419497f9722a3daafe3b4186f6b6457e060405160405180910390a35050565b611370806101146000396000f3fe608060405234801561001057600080fd5b50600436106100cf5760003560e01c80635603e67d1161008c5780638da5cb5b116100665780638da5cb5b14610202578063c9d27afe14610220578063cfa03bbb1461023c578063f2fde38b1461026c576100cf565b80635603e67d146101975780636e17dd43146101c8578063715018a6146101f8576100cf565b806303c7881a146100d457806305016a00146101055780630d1a8ecd1461012157806334a8146a1461013f578063403644f31461015b578063469a78d214610179575b600080fd5b6100ee60048036038101906100e99190610c3e565b610288565b6040516100fc929190610ca8565b60405180910390f35b61011f600480360381019061011a9190610cd1565b610305565b005b610129610436565b6040516101369190610cfe565b60405180910390f35b61015960048036038101906101549190610cd1565b61043b565b005b61016361056b565b6040516101709190610cfe565b60405180910390f35b610181610571565b60405161018e9190610cfe565b60405180910390f35b6101b160048036038101906101ac9190610cd1565b610578565b6040516101bf929190610d19565b60405180910390f35b6101e260048036038101906101dd9190610cd1565b6105a6565b6040516101ef9190610cfe565b60405180910390f35b6102006105ef565b005b61020a610603565b6040516102179190610d51565b60405180910390f35b61023a60048036038101906102359190610d98565b61062c565b005b61025660048036038101906102519190610cd1565b610953565b6040516102639190610dd8565b60405180910390f35b61028660048036038101906102819190610df3565b610980565b005b60008060006002600086815260200190815260200160002060050160008573ffffffffffffffffffffffffffffffffffffffff1673ffffffffffffffffffffffffffffffffffffffff16815260200190815260200160002090508060000160009054906101000a900460ff16816001015492509250509250929050565b61030d610a03565b806000600260008381526020019081526020016000206002015403610367576040517f08c379a000000000000000000000000000000000000000000000000000000000815260040161035e90610e7d565b60405180910390fd5b6002600083815260200190815260200160002060040160009054906101000a900460ff16156103cb576040517f08c379a00000000000000000000000000000000000000000000000000000000081526004016103c290610ee9565b60405180910390fd5b60016002600084815260200190815260200160002060040160006101000a81548160ff021916908315150217905550817fe63c62c0927da4e3292341064fc5139061dbabf6398047ffc028967c68857f854260405161042a9190610cfe565b60405180910390a25050565b606481565b610443610a03565b80600060026000838152602001908152602001600020600201540361049d576040517f08c379a000000000000000000000000000000000000000000000000000000000815260040161049490610e7d565b60405180910390fd5b6002600083815260200190815260200160002060040160009054906101000a900460ff16610500576040517f08c379a00000000000000000000000000000000000000000000000000000000081526004016104f790610f55565b60405180910390fd5b60006002600084815260200190815260200160002060040160006101000a81548160ff021916908315150217905550817fb8fa57662c7798f813008436099bc939136e85ea523644d8ef0381ad41dd7ad54260405161055f9190610cfe565b60405180910390a25050565b610e1081565b6201518081565b6000806000600260008581526020019081526020016000209050806000015481600101549250925050915091565b6000806002600084815260200190815260200160002090506201518081600201546105d19190610fa4565b42106105e15760009150506105ea565b80600301549150505b919050565b6105f7610a03565b6106016000610a81565b565b60008060009054906101000a900473ffffffffffffffffffffffffffffffffffffffff16905090565b610634610b45565b816002600082815260200190815260200160002060040160009054906101000a900460ff1615610699576040517f08c379a000000000000000000000000000000000000000000000000000000000815260040161069090611024565b60405180910390fd5b600060026000858152602001908152602001600020905060008160020154036106c6574281600201819055505b60008160050160003373ffffffffffffffffffffffffffffffffffffffff1673ffffffffffffffffffffffffffffffffffffffff168152602001908152602001600020600101541461074d576040517f08c379a000000000000000000000000000000000000000000000000000000000815260040161074490611090565b60405180910390fd5b610e10816002015461075f9190610fa4565b4210156107a1576040517f08c379a0000000000000000000000000000000000000000000000000000000008152600401610798906110fc565b60405180910390fd5b6201518081600201546107b49190610fa4565b42106107c557600081600301819055505b606481600301541061080c576040517f08c379a000000000000000000000000000000000000000000000000000000000815260040161080390611168565b60405180910390fd5b82156108315780600001600081548092919061082790611188565b919050555061084c565b80600101600081548092919061084690611188565b91905055505b60405180604001604052808415158152602001428152508160050160003373ffffffffffffffffffffffffffffffffffffffff1673ffffffffffffffffffffffffffffffffffffffff16815260200190815260200160002060008201518160000160006101000a81548160ff021916908315150217905550602082015181600101559050504281600201819055508060030160008154809291906108ef90611188565b91905055503373ffffffffffffffffffffffffffffffffffffffff16847fcbdf6214089cba887ecbf35a0b6a734589959c9763342c756bb2a80ca2bc9f6e854260405161093d929190610ca8565b60405180910390a3505061094f610b94565b5050565b60006002600083815260200190815260200160002060040160009054906101000a900460ff169050919050565b610988610a03565b600073ffffffffffffffffffffffffffffffffffffffff168173ffffffffffffffffffffffffffffffffffffffff16036109f7576040517f08c379a00000000000000000000000000000000000000000000000000000000081526004016109ee90611242565b60405180910390fd5b610a0081610a81565b50565b610a0b610b9d565b73ffffffffffffffffffffffffffffffffffffffff16610a29610603565b73ffffffffffffffffffffffffffffffffffffffff1614610a7f576040517f08c379a0000000000000000000000000000000000000000000000000000000008152600401610a76906112ae565b60405180910390fd5b565b60008060009054906101000a900473ffffffffffffffffffffffffffffffffffffffff169050816000806101000a81548173ffffffffffffffffffffffffffffffffffffffff021916908373ffffffffffffffffffffffffffffffffffffffff1602179055508173ffffffffffffffffffffffffffffffffffffffff168173ffffffffffffffffffffffffffffffffffffffff167f8be0079c531659141344cd1fd0a4f28419497f9722a3daafe3b4186f6b6457e060405160405180910390a35050565b600260015403610b8a576040517f08c379a0000000000000000000000000000000000000000000000000000000008152600401610b819061131a565b60405180910390fd5b6002600181905550565b60018081905550565b600033905090565b600080fd5b6000819050919050565b610bbd81610baa565b8114610bc857600080fd5b50565b600081359050610bda81610bb4565b92915050565b600073ffffffffffffffffffffffffffffffffffffffff82169050919050565b6000610c0b82610be0565b9050919050565b610c1b81610c00565b8114610c2657600080fd5b50565b600081359050610c3881610c12565b92915050565b60008060408385031215610c5557610c54610ba5565b5b6000610c6385828601610bcb565b9250506020610c7485828601610c29565b9150509250929050565b60008115159050919050565b610c9381610c7e565b82525050565b610ca281610baa565b82525050565b6000604082019050610cbd6000830185610c8a565b610cca6020830184610c99565b9392505050565b600060208284031215610ce757610ce6610ba5565b5b6000610cf584828501610bcb565b91505092915050565b6000602082019050610d136000830184610c99565b92915050565b6000604082019050610d2e6000830185610c99565b610d3b6020830184610c99565b9392505050565b610d4b81610c00565b82525050565b6000602082019050610d666000830184610d42565b92915050565b610d7581610c7e565b8114610d8057600080fd5b50565b600081359050610d9281610d6c565b92915050565b60008060408385031215610daf57610dae610ba5565b5b6000610dbd85828601610bcb565b9250506020610dce85828601610d83565b9150509250929050565b6000602082019050610ded6000830184610c8a565b92915050565b600060208284031215610e0957610e08610ba5565b5b6000610e1784828501610c29565b91505092915050565b600082825260208201905092915050565b7f41727469636c6520646f6573206e6f7420657869737400000000000000000000600082015250565b6000610e67601683610e20565b9150610e7282610e31565b602082019050919050565b60006020820190508181036000830152610e9681610e5a565b9050919050565b7f41727469636c6520616c72656164792066726f7a656e00000000000000000000600082015250565b6000610ed3601683610e20565b9150610ede82610e9d565b602082019050919050565b60006020820190508181036000830152610f0281610ec6565b9050919050565b7f41727469636c65206e6f742066726f7a656e0000000000000000000000000000600082015250565b6000610f3f601283610e20565b9150610f4a82610f09565b602082019050919050565b60006020820190508181036000830152610f6e81610f32565b9050919050565b7f4e487b7100000000000000000000000000000000000000000000000000000000600052601160045260246000fd5b6000610faf82610baa565b9150610fba83610baa565b9250828201905080821115610fd257610fd1610f75565b5b92915050565b7f41727469636c652069732066726f7a656e000000000000000000000000000000600082015250565b600061100e601183610e20565b915061101982610fd8565b602082019050919050565b6000602082019050818103600083015261103d81611001565b9050919050565b7f416c726561647920766f74656400000000000000000000000000000000000000600082015250565b600061107a600d83610e20565b915061108582611044565b602082019050919050565b600060208201905081810360008301526110a98161106d565b9050919050565b7f566f746520636f6f6c646f776e20616374697665000000000000000000000000600082015250565b60006110e6601483610e20565b91506110f1826110b0565b602082019050919050565b60006020820190508181036000830152611115816110d9565b9050919050565b7f4d617820766f74657320696e2077696e646f7720726561636865640000000000600082015250565b6000611152601b83610e20565b915061115d8261111c565b602082019050919050565b6000602082019050818103600083015261118181611145565b9050919050565b600061119382610baa565b91507fffffffffffffffffffffffffffffffffffffffffffffffffffffffffffffffff82036111c5576111c4610f75565b5b600182019050919050565b7f4f776e61626c653a206e6577206f776e657220697320746865207a65726f206160008201527f6464726573730000000000000000000000000000000000000000000000000000602082015250565b600061122c602683610e20565b9150611237826111d0565b604082019050919050565b6000602082019050818103600083015261125b8161121f565b9050919050565b7f4f776e61626c653a2063616c6c6572206973206e6f7420746865206f776e6572600082015250565b6000611298602083610e20565b91506112a382611262565b602082019050919050565b600060208201905081810360008301526112c78161128b565b9050919050565b7f5265656e7472616e637947756172643a207265656e7472616e742063616c6c00600082015250565b6000611304601f83610e20565b915061130f826112ce565b602082019050919050565b60006020820190508181036000830152611333816112f7565b905091905056fea2646970667358221220b6a0861162fe549342b61dabd3c13d7ddace553007cd94eff127ac05a1b876cf64736f6c63430008110033","opcodes":"PUSH1 0x80 PUSH1 0x40 MSTORE CALLVALUE DUP1 ISZERO PUSH2 0x10 JUMPI PUSH1 0x0 DUP1 REVERT JUMPDEST POP PUSH2 0x2D PUSH2 0x22 PUSH2 0x39 PUSH1 0x20 SHL PUSH1 0x20 SHR JUMP JUMPDEST PUSH2 0x41 PUSH1 0x20 SHL PUSH1 0x20 SHR JUMP JUMPDEST PUSH1 0x1 DUP1 DUP2 SWAP1 SSTORE POP PUSH2 0x105 JUMP JUMPDEST PUSH1 0x0 CALLER SWAP1 POP SWAP1 JUMP JUMPDEST PUSH1 0x0 DUP1 PUSH1 0x0 SWAP1 SLOAD SWAP1 PUSH2 0x100 EXP SWAP1 DIV PUSH20 0xFFFFFFFFFFFFFFFFFFFFFFFFFFFFFFFFFFFFFFFF AND SWAP1 POP DUP2 PUSH1 0x0 DUP1 PUSH2 0x100 EXP DUP2 SLOAD DUP2 PUSH20 0xFFFFFFFFFFFFFFFFFFFFFFFFFFFFFFFFFFFFFFFF MUL NOT AND SWAP1 DUP4 PUSH20 0xFFFFFFFFFFFFFFFFFFFFFFFFFFFFFFFFFFFFFFFF AND MUL OR SWAP1 SSTORE POP DUP2 PUSH20 0xFFFFFFFFFFFFFFFFFFFFFFFFFFFFFFFFFFFFFFFF AND DUP2 PUSH20 0xFFFFFFFFFFFFFFFFFFFFFFFFFFFFFFFFFFFFFFFF AND PUSH32 0x8BE0079C531659141344CD1FD0A4F28419497F9722A3DAAFE3B4186F6B6457E0 PUSH1 0x40 MLOAD PUSH1 0x40 MLOAD DUP1 SWAP2 SUB SWAP1 LOG3 POP POP JUMP JUMPDEST PUSH2 0x1370 DUP1 PUSH2 0x114 PUSH1 0x0 CODECOPY PUSH1 0x0 RETURN INVALID PUSH1 0x80 PUSH1 0x40 MSTORE CALLVALUE DUP1 ISZERO PUSH2 0x10 JUMPI PUSH1 0x0 DUP1 REVERT JUMPDEST POP PUSH1 0x4 CALLDATASIZE LT PUSH2 0xCF JUMPI PUSH1 0x0 CALLDATALOAD PUSH1 0xE0 SHR DUP1 PUSH4 0x5603E67D GT PUSH2 0x8C JUMPI DUP1 PUSH4 0x8DA5CB5B GT PUSH2 0x66 JUMPI DUP1 PUSH4 0x8DA5CB5B EQ PUSH2 0x202 JUMPI DUP1 PUSH4 0xC9D27AFE EQ PUSH2 0x220 JUMPI DUP1 PUSH4 0xCFA03BBB EQ PUSH2 0x23C JUMPI DUP1 PUSH4 0xF2FDE38B EQ PUSH2 0x26C JUMPI PUSH2 0xCF JUMP JUMPDEST DUP1 PUSH4 0x5603E67D EQ PUSH2 0x197 JUMPI DUP1 PUSH4 0x6E17DD43 EQ PUSH2 0x1C8 JUMPI DUP1 PUSH4 0x715018A6 EQ PUSH2 0x1F8 JUMPI PUSH2 0xCF JUMP JUMPDEST DUP1 PUSH4 0x3C7881A EQ PUSH2 0xD4 JUMPI DUP1 PUSH4 0x5016A00 EQ PUSH2 0x105 JUMPI DUP1 PUSH4 0xD1A8ECD EQ PUSH2 0x121 JUMPI DUP1 PUSH4 0x34A8146A EQ PUSH2 0x13F JUMPI DUP1 PUSH4 0x403644F3 EQ PUSH2 0x15B JUMPI DUP1 PUSH4 0x469A78D2 EQ PUSH2 0x179 JUMPI JUMPDEST PUSH1 0x0 DUP1 REVERT JUMPDEST PUSH2 0xEE PUSH1 0x4 DUP1 CALLDATASIZE SUB DUP2 ADD SWAP1 PUSH2 0xE9 SWAP2 SWAP1 PUSH2 0xC3E JUMP JUMPDEST PUSH2 0x288 JUMP JUMPDEST PUSH1 0x40 MLOAD PUSH2 0xFC SWAP3 SWAP2 SWAP1 PUSH2 0xCA8 JUMP JUMPDEST PUSH1 0x40 MLOAD DUP1 SWAP2 SUB SWAP1 RETURN JUMPDEST PUSH2 0x11F PUSH1 0x4 DUP1 CALLDATASIZE SUB DUP2 ADD SWAP1 PUSH2 0x11A SWAP2 SWAP1 PUSH2 0xCD1 JUMP JUMPDEST PUSH2 0x305 JUMP JUMPDEST STOP JUMPDEST PUSH2 0x129 PUSH2 0x436 JUMP JUMPDEST PUSH1 0x40 MLOAD PUSH2 0x136 SWAP2 SWAP1 PUSH2 0xCFE JUMP JUMPDEST PUSH1 0x40 MLOAD DUP1 SWAP2 SUB SWAP1 RETURN JUMPDEST PUSH2 0x159 PUSH1 0x4 DUP1 CALLDATASIZE SUB DUP2 ADD SWAP1 PUSH2 0x154 SWAP2 SWAP1 PUSH2 0xCD1 JUMP JUMPDEST PUSH2 0x43B JUMP JUMPDEST STOP JUMPDEST PUSH2 0x163 PUSH2 0x56B JUMP JUMPDEST PUSH1 0x40 MLOAD PUSH2 0x170 SWAP2 SWAP1 PUSH2 0xCFE JUMP JUMPDEST PUSH1 0x40 MLOAD DUP1 SWAP2 SUB SWAP1 RETURN JUMPDEST PUSH2 0x181 PUSH2 0x571 JUMP JUMPDEST PUSH1 0x40 MLOAD PUSH2 0x18E SWAP2 SWAP1 PUSH2 0xCFE JUMP JUMPDEST PUSH1 0x40 MLOAD DUP1 SWAP2 SUB SWAP1 RETURN JUMPDEST PUSH2 0x1B1 PUSH1 0x4 DUP1 CALLDATASIZE SUB DUP2 ADD SWAP1 PUSH2 0x1AC SWAP2 SWAP1 PUSH2 0xCD1 JUMP JUMPDEST PUSH2 0x578 JUMP JUMPDEST PUSH1 0x40 MLOAD PUSH2 0x1BF SWAP3 SWAP2 SWAP1 PUSH2 0xD19 JUMP JUMPDEST PUSH1 0x40 MLOAD DUP1 SWAP2 SUB SWAP1 RETURN JUMPDEST PUSH2 0x1E2 PUSH1 0x4 DUP1 CALLDATASIZE SUB DUP2 ADD SWAP1 PUSH2 0x1DD SWAP2 SWAP1 PUSH2 0xCD1 JUMP JUMPDEST PUSH2 0x5A6 JUMP JUMPDEST PUSH1 0x40 MLOAD PUSH2 0x1EF SWAP2 SWAP1 PUSH2 0xCFE JUMP JUMPDEST PUSH1 0x40 MLOAD DUP1 SWAP2 SUB SWAP1 RETURN JUMPDEST PUSH2 0x200 PUSH2 0x5EF JUMP JUMPDEST STOP JUMPDEST PUSH2 0x20A PUSH2 0x603 JUMP JUMPDEST PUSH1 0x40 MLOAD PUSH2 0x217 SWAP2 SWAP1 PUSH2 0xD51 JUMP JUMPDEST PUSH1 0x40 MLOAD DUP1 SWAP2 SUB SWAP1 RETURN JUMPDEST PUSH2 0x23A PUSH1 0x4 DUP1 CALLDATASIZE SUB DUP2 ADD SWAP1 PUSH2 0x235 SWAP2 SWAP1 PUSH2 0xD98 JUMP JUMPDEST PUSH2 0x62C JUMP JUMPDEST STOP JUMPDEST PUSH2 0x256 PUSH1 0x4 DUP1 CALLDATASIZE SUB DUP2 ADD SWAP1 PUSH2 0x251 SWAP2 SWAP1 PUSH2 0xCD1 JUMP JUMPDEST PUSH2 0x953 JUMP JUMPDEST PUSH1 0x40 MLOAD PUSH2 0x263 SWAP2 SWAP1 PUSH2 0xDD8 JUMP JUMPDEST PUSH1 0x40 MLOAD DUP1 SWAP2 SUB SWAP1 RETURN JUMPDEST PUSH2 0x286 PUSH1 0x4 DUP1 CALLDATASIZE SUB DUP2 ADD SWAP1 PUSH2 0x281 SWAP2 SWAP1 PUSH2 0xDF3 JUMP JUMPDEST PUSH2 0x980 JUMP JUMPDEST STOP JUMPDEST PUSH1 0x0 DUP1 PUSH1 0x0 PUSH1 0x2 PUSH1 0x0 DUP7 DUP2 MSTORE PUSH1 0x20 ADD SWAP1 DUP2 MSTORE PUSH1 0x20 ADD PUSH1 0x0 KECCAK256 PUSH1 0x5 ADD PUSH1 0x0 DUP6 PUSH20 0xFFFFFFFFFFFFFFFFFFFFFFFFFFFFFFFFFFFFFFFF AND PUSH20 0xFFFFFFFFFFFFFFFFFFFFFFFFFFFFFFFFFFFFFFFF AND DUP2 MSTORE PUSH1 0x20 ADD SWAP1 DUP2 MSTORE PUSH1 0x20 ADD PUSH1 0x0 KECCAK256 SWAP1 POP DUP1 PUSH1 0x0 ADD PUSH1 0x0 SWAP1 SLOAD SWAP1 PUSH2 0x100 EXP SWAP1 DIV PUSH1 0xFF AND DUP2 PUSH1 0x1 ADD SLOAD SWAP3 POP SWAP3 POP POP SWAP3 POP SWAP3 SWAP1 POP JUMP JUMPDEST PUSH2 0x30D PUSH2 0xA03 JUMP JUMPDEST DUP1 PUSH1 0x0 PUSH1 0x2 PUSH1 0x0 DUP4 DUP2 MSTORE PUSH1 0x20 ADD SWAP1 DUP2 MSTORE PUSH1 0x20 ADD PUSH1 0x0 KECCAK256 PUSH1 0x2 ADD SLOAD SUB PUSH2 0x367 JUMPI PUSH1 0x40 MLOAD PUSH32 0x8C379A000000000000000000000000000000000000000000000000000000000 DUP2 MSTORE PUSH1 0x4 ADD PUSH2 0x35E SWAP1 PUSH2 0xE7D JUMP JUMPDEST PUSH1 0x40 MLOAD DUP1 SWAP2 SUB SWAP1 REVERT JUMPDEST PUSH1 0x2 PUSH1 0x0 DUP4 DUP2 MSTORE PUSH1 0x20 ADD SWAP1 DUP2 MSTORE PUSH1 0x20 ADD PUSH1 0x0 KECCAK256 PUSH1 0x4 ADD PUSH1 0x0 SWAP1 SLOAD SWAP1 PUSH2 0x100 EXP SWAP1 DIV PUSH1 0xFF AND ISZERO PUSH2 0x3CB JUMPI PUSH1 0x40 MLOAD PUSH32 0x8C379A000000000000000000000000000000000000000000000000000000000 DUP2 MSTORE PUSH1 0x4 ADD PUSH2 0x3C2 SWAP1 PUSH2 0xEE9 JUMP JUMPDEST PUSH1 0x40 MLOAD DUP1 SWAP2 SUB SWAP1 REVERT JUMPDEST PUSH1 0x1 PUSH1 0x2 PUSH1 0x0 DUP5 DUP2 MSTORE PUSH1 0x20 ADD SWAP1 DUP2 MSTORE PUSH1 0x20 ADD PUSH1 0x0 KECCAK256 PUSH1 0x4 ADD PUSH1 0x0 PUSH2 0x100 EXP DUP2 SLOAD DUP2 PUSH1 0xFF MUL NOT AND SWAP1 DUP4 ISZERO ISZERO MUL OR SWAP1 SSTORE POP DUP2 PUSH32 0xE63C62C0927DA4E3292341064FC5139061DBABF6398047FFC028967C68857F85 TIMESTAMP PUSH1 0x40 MLOAD PUSH2 0x42A SWAP2 SWAP1 PUSH2 0xCFE JUMP JUMPDEST PUSH1 0x40 MLOAD DUP1 SWAP2 SUB SWAP1 LOG2 POP POP JUMP JUMPDEST PUSH1 0x64 DUP2 JUMP JUMPDEST PUSH2 0x443 PUSH2 0xA03 JUMP JUMPDEST DUP1 PUSH1 0x0 PUSH1 0x2 PUSH1 0x0 DUP4 DUP2 MSTORE PUSH1 0x20 ADD SWAP1 DUP2 MSTORE PUSH1 0x20 ADD PUSH1 0x0 KECCAK256 PUSH1 0x2 ADD SLOAD SUB PUSH2 0x49D JUMPI PUSH1 0x40 MLOAD PUSH32 0x8C379A000000000000000000000000000000000000000000000000000000000 DUP2 MSTORE PUSH1 0x4 ADD PUSH2 0x494 SWAP1 PUSH2 0xE7D JUMP JUMPDEST PUSH1 0x40 MLOAD DUP1 SWAP2 SUB SWAP1 REVERT JUMPDEST PUSH1 0x2 PUSH1 0x0 DUP4 DUP2 MSTORE PUSH1 0x20 ADD SWAP1 DUP2 MSTORE PUSH1 0x20 ADD PUSH1 0x0 KECCAK256 PUSH1 0x4 ADD PUSH1 0x0 SWAP1 SLOAD SWAP1 PUSH2 0x100 EXP SWAP1 DIV PUSH1 0xFF AND PUSH2 0x500 JUMPI PUSH1 0x40 MLOAD PUSH32 0x8C379A000000000000000000000000000000000000000000000000000000000 DUP2 MSTORE PUSH1 0x4 ADD PUSH2 0x4F7 SWAP1 PUSH2 0xF55 JUMP JUMPDEST PUSH1 0x40 MLOAD DUP1 SWAP2 SUB SWAP1 REVERT JUMPDEST PUSH1 0x0 PUSH1 0x2 PUSH1 0x0 DUP5 DUP2 MSTORE PUSH1 0x20 ADD SWAP1 DUP2 MSTORE PUSH1 0x20 ADD PUSH1 0x0 KECCAK256 PUSH1 0x4 ADD PUSH1 0x0 PUSH2 0x100 EXP DUP2 SLOAD DUP2 PUSH1 0xFF MUL NOT AND SWAP1 DUP4 ISZERO ISZERO MUL OR SWAP1 SSTORE POP DUP2 PUSH32 0xB8FA57662C7798F813008436099BC939136E85EA523644D8EF0381AD41DD7AD5 TIMESTAMP PUSH1 0x40 MLOAD PUSH2 0x55F SWAP2 SWAP1 PUSH2 0xCFE JUMP JUMPDEST PUSH1 0x40 MLOAD DUP1 SWAP2 SUB SWAP1 LOG2 POP POP JUMP JUMPDEST PUSH2 0xE10 DUP2 JUMP JUMPDEST PUSH3 0x15180 DUP2 JUMP JUMPDEST PUSH1 0x0 DUP1 PUSH1 0x0 PUSH1 0x2 PUSH1 0x0 DUP6 DUP2 MSTORE PUSH1 0x20 ADD SWAP1 DUP2 MSTORE PUSH1 0x20 ADD PUSH1 0x0 KECCAK256 SWAP1 POP DUP1 PUSH1 0x0 ADD SLOAD DUP2 PUSH1 0x1 ADD SLOAD SWAP3 POP SWAP3 POP POP SWAP2 POP SWAP2 JUMP JUMPDEST PUSH1 0x0 DUP1 PUSH1 0x2 PUSH1 0x0 DUP5 DUP2 MSTORE PUSH1 0x20 ADD SWAP1 DUP2 MSTORE PUSH1 0x20 ADD PUSH1 0x0 KECCAK256 SWAP1 POP PUSH3 0x15180 DUP2 PUSH1 0x2 ADD SLOAD PUSH2 0x5D1 SWAP2 SWAP1 PUSH2 0xFA4 JUMP JUMPDEST TIMESTAMP LT PUSH2 0x5E1 JUMPI PUSH1 0x0 SWAP2 POP POP PUSH2 0x5EA JUMP JUMPDEST DUP1 PUSH1 0x3 ADD SLOAD SWAP2 POP POP JUMPDEST SWAP2 SWAP1 POP JUMP JUMPDEST PUSH2 0x5F7 PUSH2 0xA03 JUMP JUMPDEST PUSH2 0x601 PUSH1 0x0 PUSH2 0xA81 JUMP JUMPDEST JUMP JUMPDEST PUSH1 0x0 DUP1 PUSH1 0x0 SWAP1 SLOAD SWAP1 PUSH2 0x100 EXP SWAP1 DIV PUSH20 0xFFFFFFFFFFFFFFFFFFFFFFFFFFFFFFFFFFFFFFFF AND SWAP1 POP SWAP1 JUMP JUMPDEST PUSH2 0x634 PUSH2 0xB45 JUMP JUMPDEST DUP2 PUSH1 0x2 PUSH1 0x0 DUP3 DUP2 MSTORE PUSH1 0x20 ADD SWAP1 DUP2 MSTORE PUSH1 0x20 ADD PUSH1 0x0 KECCAK256 PUSH1 0x4 ADD PUSH1 0x0 SWAP1 SLOAD SWAP1 PUSH2 0x100 EXP SWAP1 DIV PUSH1 0xFF AND ISZERO PUSH2 0x699 JUMPI PUSH1 0x40 MLOAD PUSH32 0x8C379A000000000000000000000000000000000000000000000000000000000 DUP2 MSTORE PUSH1 0x4 ADD PUSH2 0x690 SWAP1 PUSH2 0x1024 JUMP JUMPDEST PUSH1 0x40 MLOAD DUP1 SWAP2 SUB SWAP1 REVERT JUMPDEST PUSH1 0x0 PUSH1 0x2 PUSH1 0x0 DUP6 DUP2 MSTORE PUSH1 0x20 ADD SWAP1 DUP2 MSTORE PUSH1 0x20 ADD PUSH1 0x0 KECCAK256 SWAP1 POP PUSH1 0x0 DUP2 PUSH1 0x2 ADD SLOAD SUB PUSH2 0x6C6 JUMPI TIMESTAMP DUP2 PUSH1 0x2 ADD DUP2 SWAP1 SSTORE POP JUMPDEST PUSH1 0x0 DUP2 PUSH1 0x5 ADD PUSH1 0x0 CALLER PUSH20 0xFFFFFFFFFFFFFFFFFFFFFFFFFFFFFFFFFFFFFFFF AND PUSH20 0xFFFFFFFFFFFFFFFFFFFFFFFFFFFFFFFFFFFFFFFF AND DUP2 MSTORE PUSH1 0x20 ADD SWAP1 DUP2 MSTORE PUSH1 0x20 ADD PUSH1 0x0 KECCAK256 PUSH1 0x1 ADD SLOAD EQ PUSH2 0x74D JUMPI PUSH1 0x40 MLOAD PUSH32 0x8C379A000000000000000000000000000000000000000000000000000000000 DUP2 MSTORE PUSH1 0x4 ADD PUSH2 0x744 SWAP1 PUSH2 0x1090 JUMP JUMPDEST PUSH1 0x40 MLOAD DUP1 SWAP2 SUB SWAP1 REVERT JUMPDEST PUSH2 0xE10 DUP2 PUSH1 0x2 ADD SLOAD PUSH2 0x75F SWAP2 SWAP1 PUSH2 0xFA4 JUMP JUMPDEST TIMESTAMP LT ISZERO PUSH2 0x7A1 JUMPI PUSH1 0x40 MLOAD PUSH32 0x8C379A000000000000000000000000000000000000000000000000000000000 DUP2 MSTORE PUSH1 0x4 ADD PUSH2 0x798 SWAP1 PUSH2 0x10FC JUMP JUMPDEST PUSH1 0x40 MLOAD DUP1 SWAP2 SUB SWAP1 REVERT JUMPDEST PUSH3 0x15180 DUP2 PUSH1 0x2 ADD SLOAD PUSH2 0x7B4 SWAP2 SWAP1 PUSH2 0xFA4 JUMP JUMPDEST TIMESTAMP LT PUSH2 0x7C5 JUMPI PUSH1 0x0 DUP2 PUSH1 0x3 ADD DUP2 SWAP1 SSTORE POP JUMPDEST PUSH1 0x64 DUP2 PUSH1 0x3 ADD SLOAD LT PUSH2 0x80C JUMPI PUSH1 0x40 MLOAD PUSH32 0x8C379A000000000000000000000000000000000000000000000000000000000 DUP2 MSTORE PUSH1 0x4 ADD PUSH2 0x803 SWAP1 PUSH2 0x1168 JUMP JUMPDEST PUSH1 0x40 MLOAD DUP1 SWAP2 SUB SWAP1 REVERT JUMPDEST DUP3 ISZERO PUSH2 0x831 JUMPI DUP1 PUSH1 0x0 ADD PUSH1 0x0 DUP2 SLOAD DUP1 SWAP3 SWAP2 SWAP1 PUSH2 0x827 SWAP1 PUSH2 0x1188 JUMP JUMPDEST SWAP2 SWAP1 POP SSTORE POP PUSH2 0x84C JUMP JUMPDEST DUP1 PUSH1 0x1 ADD PUSH1 0x0 DUP2 SLOAD DUP1 SWAP3 SWAP2 SWAP1 PUSH2 0x846 SWAP1 PUSH2 0x1188 JUMP JUMPDEST SWAP2 SWAP1 POP SSTORE POP JUMPDEST PUSH1 0x40 MLOAD DUP1 PUSH1 0x40 ADD PUSH1 0x40 MSTORE DUP1 DUP5 ISZERO ISZERO DUP2 MSTORE PUSH1 0x20 ADD TIMESTAMP DUP2 MSTORE POP DUP2 PUSH1 0x5 ADD PUSH1 0x0 CALLER PUSH20 0xFFFFFFFFFFFFFFFFFFFFFFFFFFFFFFFFFFFFFFFF AND PUSH20 0xFFFFFFFFFFFFFFFFFFFFFFFFFFFFFFFFFFFFFFFF AND DUP2 MSTORE PUSH1 0x20 ADD SWAP1 DUP2 MSTORE PUSH1 0x20 ADD PUSH1 0x0 KECCAK256 PUSH1 0x0 DUP3 ADD MLOAD DUP2 PUSH1 0x0 ADD PUSH1 0x0 PUSH2 0x100 EXP DUP2 SLOAD DUP2 PUSH1 0xFF MUL NOT AND SWAP1 DUP4 ISZERO ISZERO MUL OR SWAP1 SSTORE POP PUSH1 0x20 DUP3 ADD MLOAD DUP2 PUSH1 0x1 ADD SSTORE SWAP1 POP POP TIMESTAMP DUP2 PUSH1 0x2 ADD DUP2 SWAP1 SSTORE POP DUP1 PUSH1 0x3 ADD PUSH1 0x0 DUP2 SLOAD DUP1 SWAP3 SWAP2 SWAP1 PUSH2 0x8EF SWAP1 PUSH2 0x1188 JUMP JUMPDEST SWAP2 SWAP1 POP SSTORE POP CALLER PUSH20 0xFFFFFFFFFFFFFFFFFFFFFFFFFFFFFFFFFFFFFFFF AND DUP5 PUSH32 0xCBDF6214089CBA887ECBF35A0B6A734589959C9763342C756BB2A80CA2BC9F6E DUP6 TIMESTAMP PUSH1 0x40 MLOAD PUSH2 0x93D SWAP3 SWAP2 SWAP1 PUSH2 0xCA8 JUMP JUMPDEST PUSH1 0x40 MLOAD DUP1 SWAP2 SUB SWAP1 LOG3 POP POP PUSH2 0x94F PUSH2 0xB94 JUMP JUMPDEST POP POP JUMP JUMPDEST PUSH1 0x0 PUSH1 0x2 PUSH1 0x0 DUP4 DUP2 MSTORE PUSH1 0x20 ADD SWAP1 DUP2 MSTORE PUSH1 0x20 ADD PUSH1 0x0 KECCAK256 PUSH1 0x4 ADD PUSH1 0x0 SWAP1 SLOAD SWAP1 PUSH2 0x100 EXP SWAP1 DIV PUSH1 0xFF AND SWAP1 POP SWAP2 SWAP1 POP JUMP JUMPDEST PUSH2 0x988 PUSH2 0xA03 JUMP JUMPDEST PUSH1 0x0 PUSH20 0xFFFFFFFFFFFFFFFFFFFFFFFFFFFFFFFFFFFFFFFF AND DUP2 PUSH20 0xFFFFFFFFFFFFFFFFFFFFFFFFFFFFFFFFFFFFFFFF AND SUB PUSH2 0x9F7 JUMPI PUSH1 0x40 MLOAD PUSH32 0x8C379A000000000000000000000000000000000000000000000000000000000 DUP2 MSTORE PUSH1 0x4 ADD PUSH2 0x9EE SWAP1 PUSH2 0x1242 JUMP JUMPDEST PUSH1 0x40 MLOAD DUP1 SWAP2 SUB SWAP1 REVERT JUMPDEST PUSH2 0xA00 DUP2 PUSH2 0xA81 JUMP JUMPDEST POP JUMP JUMPDEST PUSH2 0xA0B PUSH2 0xB9D JUMP JUMPDEST PUSH20 0xFFFFFFFFFFFFFFFFFFFFFFFFFFFFFFFFFFFFFFFF AND PUSH2 0xA29 PUSH2 0x603 JUMP JUMPDEST PUSH20 0xFFFFFFFFFFFFFFFFFFFFFFFFFFFFFFFFFFFFFFFF AND EQ PUSH2 0xA7F JUMPI PUSH1 0x40 MLOAD PUSH32 0x8C379A000000000000000000000000000000000000000000000000000000000 DUP2 MSTORE PUSH1 0x4 ADD PUSH2 0xA76 SWAP1 PUSH2 0x12AE JUMP JUMPDEST PUSH1 0x40 MLOAD DUP1 SWAP2 SUB SWAP1 REVERT JUMPDEST JUMP JUMPDEST PUSH1 0x0 DUP1 PUSH1 0x0 SWAP1 SLOAD SWAP1 PUSH2 0x100 EXP SWAP1 DIV PUSH20 0xFFFFFFFFFFFFFFFFFFFFFFFFFFFFFFFFFFFFFFFF AND SWAP1 POP DUP2 PUSH1 0x0 DUP1 PUSH2 0x100 EXP DUP2 SLOAD DUP2 PUSH20 0xFFFFFFFFFFFFFFFFFFFFFFFFFFFFFFFFFFFFFFFF MUL NOT AND SWAP1 DUP4 PUSH20 0xFFFFFFFFFFFFFFFFFFFFFFFFFFFFFFFFFFFFFFFF AND MUL OR SWAP1 SSTORE POP DUP2 PUSH20 0xFFFFFFFFFFFFFFFFFFFFFFFFFFFFFFFFFFFFFFFF AND DUP2 PUSH20 0xFFFFFFFFFFFFFFFFFFFFFFFFFFFFFFFFFFFFFFFF AND PUSH32 0x8BE0079C531659141344CD1FD0A4F28419497F9722A3DAAFE3B4186F6B6457E0 PUSH1 0x40 MLOAD PUSH1 0x40 MLOAD DUP1 SWAP2 SUB SWAP1 LOG3 POP POP JUMP JUMPDEST PUSH1 0x2 PUSH1 0x1 SLOAD SUB PUSH2 0xB8A JUMPI PUSH1 0x40 MLOAD PUSH32 0x8C379A000000000000000000000000000000000000000000000000000000000 DUP2 MSTORE PUSH1 0x4 ADD PUSH2 0xB81 SWAP1 PUSH2 0x131A JUMP JUMPDEST PUSH1 0x40 MLOAD DUP1 SWAP2 SUB SWAP1 REVERT JUMPDEST PUSH1 0x2 PUSH1 0x1 DUP2 SWAP1 SSTORE POP JUMP JUMPDEST PUSH1 0x1 DUP1 DUP2 SWAP1 SSTORE POP JUMP JUMPDEST PUSH1 0x0 CALLER SWAP1 POP SWAP1 JUMP JUMPDEST PUSH1 0x0 DUP1 REVERT JUMPDEST PUSH1 0x0 DUP2 SWAP1 POP SWAP2 SWAP1 POP JUMP JUMPDEST PUSH2 0xBBD DUP2 PUSH2 0xBAA JUMP JUMPDEST DUP2 EQ PUSH2 0xBC8 JUMPI PUSH1 0x0 DUP1 REVERT JUMPDEST POP JUMP JUMPDEST PUSH1 0x0 DUP2 CALLDATALOAD SWAP1 POP PUSH2 0xBDA DUP2 PUSH2 0xBB4 JUMP JUMPDEST SWAP3 SWAP2 POP POP JUMP JUMPDEST PUSH1 0x0 PUSH20 0xFFFFFFFFFFFFFFFFFFFFFFFFFFFFFFFFFFFFFFFF DUP3 AND SWAP1 POP SWAP2 SWAP1 POP JUMP JUMPDEST PUSH1 0x0 PUSH2 0xC0B DUP3 PUSH2 0xBE0 JUMP JUMPDEST SWAP1 POP SWAP2 SWAP1 POP JUMP JUMPDEST PUSH2 0xC1B DUP2 PUSH2 0xC00 JUMP JUMPDEST DUP2 EQ PUSH2 0xC26 JUMPI PUSH1 0x0 DUP1 REVERT JUMPDEST POP JUMP JUMPDEST PUSH1 0x0 DUP2 CALLDATALOAD SWAP1 POP PUSH2 0xC38 DUP2 PUSH2 0xC12 JUMP JUMPDEST SWAP3 SWAP2 POP POP JUMP JUMPDEST PUSH1 0x0 DUP1 PUSH1 0x40 DUP4 DUP6 SUB SLT ISZERO PUSH2 0xC55 JUMPI PUSH2 0xC54 PUSH2 0xBA5 JUMP JUMPDEST JUMPDEST PUSH1 0x0 PUSH2 0xC63 DUP6 DUP3 DUP7 ADD PUSH2 0xBCB JUMP JUMPDEST SWAP3 POP POP PUSH1 0x20 PUSH2 0xC74 DUP6 DUP3 DUP7 ADD PUSH2 0xC29 JUMP JUMPDEST SWAP2 POP POP SWAP3 POP SWAP3 SWAP1 POP JUMP JUMPDEST PUSH1 0x0 DUP2 ISZERO ISZERO SWAP1 POP SWAP2 SWAP1 POP JUMP JUMPDEST PUSH2 0xC93 DUP2 PUSH2 0xC7E JUMP JUMPDEST DUP3 MSTORE POP POP JUMP JUMPDEST PUSH2 0xCA2 DUP2 PUSH2 0xBAA JUMP JUMPDEST DUP3 MSTORE POP POP JUMP JUMPDEST PUSH1 0x0 PUSH1 0x40 DUP3 ADD SWAP1 POP PUSH2 0xCBD PUSH1 0x0 DUP4 ADD DUP6 PUSH2 0xC8A JUMP JUMPDEST PUSH2 0xCCA PUSH1 0x20 DUP4 ADD DUP5 PUSH2 0xC99 JUMP JUMPDEST SWAP4 SWAP3 POP POP POP JUMP JUMPDEST PUSH1 0x0 PUSH1 0x20 DUP3 DUP5 SUB SLT ISZERO PUSH2 0xCE7 JUMPI PUSH2 0xCE6 PUSH2 0xBA5 JUMP JUMPDEST JUMPDEST PUSH1 0x0 PUSH2 0xCF5 DUP5 DUP3 DUP6 ADD PUSH2 0xBCB JUMP JUMPDEST SWAP2 POP POP SWAP3 SWAP2 POP POP JUMP JUMPDEST PUSH1 0x0 PUSH1 0x20 DUP3 ADD SWAP1 POP PUSH2 0xD13 PUSH1 0x0 DUP4 ADD DUP5 PUSH2 0xC99 JUMP JUMPDEST SWAP3 SWAP2 POP POP JUMP JUMPDEST PUSH1 0x0 PUSH1 0x40 DUP3 ADD SWAP1 POP PUSH2 0xD2E PUSH1 0x0 DUP4 ADD DUP6 PUSH2 0xC99 JUMP JUMPDEST PUSH2 0xD3B PUSH1 0x20 DUP4 ADD DUP5 PUSH2 0xC99 JUMP JUMPDEST SWAP4 SWAP3 POP POP POP JUMP JUMPDEST PUSH2 0xD4B DUP2 PUSH2 0xC00 JUMP JUMPDEST DUP3 MSTORE POP POP JUMP JUMPDEST PUSH1 0x0 PUSH1 0x20 DUP3 ADD SWAP1 POP PUSH2 0xD66 PUSH1 0x0 DUP4 ADD DUP5 PUSH2 0xD42 JUMP JUMPDEST SWAP3 SWAP2 POP POP JUMP JUMPDEST PUSH2 0xD75 DUP2 PUSH2 0xC7E JUMP JUMPDEST DUP2 EQ PUSH2 0xD80 JUMPI PUSH1 0x0 DUP1 REVERT JUMPDEST POP JUMP JUMPDEST PUSH1 0x0 DUP2 CALLDATALOAD SWAP1 POP PUSH2 0xD92 DUP2 PUSH2 0xD6C JUMP JUMPDEST SWAP3 SWAP2 POP POP JUMP JUMPDEST PUSH1 0x0 DUP1 PUSH1 0x40 DUP4 DUP6 SUB SLT ISZERO PUSH2 0xDAF JUMPI PUSH2 0xDAE PUSH2 0xBA5 JUMP JUMPDEST JUMPDEST PUSH1 0x0 PUSH2 0xDBD DUP6 DUP3 DUP7 ADD PUSH2 0xBCB JUMP JUMPDEST SWAP3 POP POP PUSH1 0x20 PUSH2 0xDCE DUP6 DUP3 DUP7 ADD PUSH2 0xD83 JUMP JUMPDEST SWAP2 POP POP SWAP3 POP SWAP3 SWAP1 POP JUMP JUMPDEST PUSH1 0x0 PUSH1 0x20 DUP3 ADD SWAP1 POP PUSH2 0xDED PUSH1 0x0 DUP4 ADD DUP5 PUSH2 0xC8A JUMP JUMPDEST SWAP3 SWAP2 POP POP JUMP JUMPDEST PUSH1 0x0 PUSH1 0x20 DUP3 DUP5 SUB SLT ISZERO PUSH2 0xE09 JUMPI PUSH2 0xE08 PUSH2 0xBA5 JUMP JUMPDEST JUMPDEST PUSH1 0x0 PUSH2 0xE17 DUP5 DUP3 DUP6 ADD PUSH2 0xC29 JUMP JUMPDEST SWAP2 POP POP SWAP3 SWAP2 POP POP JUMP JUMPDEST PUSH1 0x0 DUP3 DUP3 MSTORE PUSH1 0x20 DUP3 ADD SWAP1 POP SWAP3 SWAP2 POP POP JUMP JUMPDEST PUSH32 0x41727469636C6520646F6573206E6F7420657869737400000000000000000000 PUSH1 0x0 DUP3 ADD MSTORE POP JUMP JUMPDEST PUSH1 0x0 PUSH2 0xE67 PUSH1 0x16 DUP4 PUSH2 0xE20 JUMP JUMPDEST SWAP2 POP PUSH2 0xE72 DUP3 PUSH2 0xE31 JUMP JUMPDEST PUSH1 0x20 DUP3 ADD SWAP1 POP SWAP2 SWAP1 POP JUMP JUMPDEST PUSH1 0x0 PUSH1 0x20 DUP3 ADD SWAP1 POP DUP2 DUP2 SUB PUSH1 0x0 DUP4 ADD MSTORE PUSH2 0xE96 DUP2 PUSH2 0xE5A JUMP JUMPDEST SWAP1 POP SWAP2 SWAP1 POP JUMP JUMPDEST PUSH32 0x41727469636C6520616C72656164792066726F7A656E00000000000000000000 PUSH1 0x0 DUP3 ADD MSTORE POP JUMP JUMPDEST PUSH1 0x0 PUSH2 0xED3 PUSH1 0x16 DUP4 PUSH2 0xE20 JUMP JUMPDEST SWAP2 POP PUSH2 0xEDE DUP3 PUSH2 0xE9D JUMP JUMPDEST PUSH1 0x20 DUP3 ADD SWAP1 POP SWAP2 SWAP1 POP JUMP JUMPDEST PUSH1 0x0 PUSH1 0x20 DUP3 ADD SWAP1 POP DUP2 DUP2 SUB PUSH1 0x0 DUP4 ADD MSTORE PUSH2 0xF02 DUP2 PUSH2 0xEC6 JUMP JUMPDEST SWAP1 POP SWAP2 SWAP1 POP JUMP JUMPDEST PUSH32 0x41727469636C65206E6F742066726F7A656E0000000000000000000000000000 PUSH1 0x0 DUP3 ADD MSTORE POP JUMP JUMPDEST PUSH1 0x0 PUSH2 0xF3F PUSH1 0x12 DUP4 PUSH2 0xE20 JUMP JUMPDEST SWAP2 POP PUSH2 0xF4A DUP3 PUSH2 0xF09 JUMP JUMPDEST PUSH1 0x20 DUP3 ADD SWAP1 POP SWAP2 SWAP1 POP JUMP JUMPDEST PUSH1 0x0 PUSH1 0x20 DUP3 ADD SWAP1 POP DUP2 DUP2 SUB PUSH1 0x0 DUP4 ADD MSTORE PUSH2 0xF6E DUP2 PUSH2 0xF32 JUMP JUMPDEST SWAP1 POP SWAP2 SWAP1 POP JUMP JUMPDEST PUSH32 0x4E487B7100000000000000000000000000000000000000000000000000000000 PUSH1 0x0 MSTORE PUSH1 0x11 PUSH1 0x4 MSTORE PUSH1 0x24 PUSH1 0x0 REVERT JUMPDEST PUSH1 0x0 PUSH2 0xFAF DUP3 PUSH2 0xBAA JUMP JUMPDEST SWAP2 POP PUSH2 0xFBA DUP4 PUSH2 0xBAA JUMP JUMPDEST SWAP3 POP DUP3 DUP3 ADD SWAP1 POP DUP1 DUP3 GT ISZERO PUSH2 0xFD2 JUMPI PUSH2 0xFD1 PUSH2 0xF75 JUMP JUMPDEST JUMPDEST SWAP3 SWAP2 POP POP JUMP JUMPDEST PUSH32 0x41727469636C652069732066726F7A656E000000000000000000000000000000 PUSH1 0x0 DUP3 ADD MSTORE POP JUMP JUMPDEST PUSH1 0x0 PUSH2 0x100E PUSH1 0x11 DUP4 PUSH2 0xE20 JUMP JUMPDEST SWAP2 POP PUSH2 0x1019 DUP3 PUSH2 0xFD8 JUMP JUMPDEST PUSH1 0x20 DUP3 ADD SWAP1 POP SWAP2 SWAP1 POP JUMP JUMPDEST PUSH1 0x0 PUSH1 0x20 DUP3 ADD SWAP1 POP DUP2 DUP2 SUB PUSH1 0x0 DUP4 ADD MSTORE PUSH2 0x103D DUP2 PUSH2 0x1001 JUMP JUMPDEST SWAP1 POP SWAP2 SWAP1 POP JUMP JUMPDEST PUSH32 0x416C726561647920766F74656400000000000000000000000000000000000000 PUSH1 0x0 DUP3 ADD MSTORE POP JUMP JUMPDEST PUSH1 0x0 PUSH2 0x107A PUSH1 0xD DUP4 PUSH2 0xE20 JUMP JUMPDEST SWAP2 POP PUSH2 0x1085 DUP3 PUSH2 0x1044 JUMP JUMPDEST PUSH1 0x20 DUP3 ADD SWAP1 POP SWAP2 SWAP1 POP JUMP JUMPDEST PUSH1 0x0 PUSH1 0x20 DUP3 ADD SWAP1 POP DUP2 DUP2 SUB PUSH1 0x0 DUP4 ADD MSTORE PUSH2 0x10A9 DUP2 PUSH2 0x106D JUMP JUMPDEST SWAP1 POP SWAP2 SWAP1 POP JUMP JUMPDEST PUSH32 0x566F746520636F6F6C646F776E20616374697665000000000000000000000000 PUSH1 0x0 DUP3 ADD MSTORE POP JUMP JUMPDEST PUSH1 0x0 PUSH2 0x10E6 PUSH1 0x14 DUP4 PUSH2 0xE20 JUMP JUMPDEST SWAP2 POP PUSH2 0x10F1 DUP3 PUSH2 0x10B0 JUMP JUMPDEST PUSH1 0x20 DUP3 ADD SWAP1 POP SWAP2 SWAP1 POP JUMP JUMPDEST PUSH1 0x0 PUSH1 0x20 DUP3 ADD SWAP1 POP DUP2 DUP2 SUB PUSH1 0x0 DUP4 ADD MSTORE PUSH2 0x1115 DUP2 PUSH2 0x10D9 JUMP JUMPDEST SWAP1 POP SWAP2 SWAP1 POP JUMP JUMPDEST PUSH32 0x4D617820766F74657320696E2077696E646F7720726561636865640000000000 PUSH1 0x0 DUP3 ADD MSTORE POP JUMP JUMPDEST PUSH1 0x0 PUSH2 0x1152 PUSH1 0x1B DUP4 PUSH2 0xE20 JUMP JUMPDEST SWAP2 POP PUSH2 0x115D DUP3 PUSH2 0x111C JUMP JUMPDEST PUSH1 0x20 DUP3 ADD SWAP1 POP SWAP2 SWAP1 POP JUMP JUMPDEST PUSH1 0x0 PUSH1 0x20 DUP3 ADD SWAP1 POP DUP2 DUP2 SUB PUSH1 0x0 DUP4 ADD MSTORE PUSH2 0x1181 DUP2 PUSH2 0x1145 JUMP JUMPDEST SWAP1 POP SWAP2 SWAP1 POP JUMP JUMPDEST PUSH1 0x0 PUSH2 0x1193 DUP3 PUSH2 0xBAA JUMP JUMPDEST SWAP2 POP PUSH32 0xFFFFFFFFFFFFFFFFFFFFFFFFFFFFFFFFFFFFFFFFFFFFFFFFFFFFFFFFFFFFFFFF DUP3 SUB PUSH2 0x11C5 JUMPI PUSH2 0x11C4 PUSH2 0xF75 JUMP JUMPDEST JUMPDEST PUSH1 0x1 DUP3 ADD SWAP1 POP SWAP2 SWAP1 POP JUMP JUMPDEST PUSH32 0x4F776E61626C653A206E6577206F776E657220697320746865207A65726F2061 PUSH1 0x0 DUP3 ADD MSTORE PUSH32 0x6464726573730000000000000000000000000000000000000000000000000000 PUSH1 0x20 DUP3 ADD MSTORE POP JUMP JUMPDEST PUSH1 0x0 PUSH2 0x122C PUSH1 0x26 DUP4 PUSH2 0xE20 JUMP JUMPDEST SWAP2 POP PUSH2 0x1237 DUP3 PUSH2 0x11D0 JUMP JUMPDEST PUSH1 0x40 DUP3 ADD SWAP1 POP SWAP2 SWAP1 POP JUMP JUMPDEST PUSH1 0x0 PUSH1 0x20 DUP3 ADD SWAP1 POP DUP2 DUP2 SUB PUSH1 0x0 DUP4 ADD MSTORE PUSH2 0x125B DUP2 PUSH2 0x121F JUMP JUMPDEST SWAP1 POP SWAP2 SWAP1 POP JUMP JUMPDEST PUSH32 0x4F776E61626C653A2063616C6C6572206973206E6F7420746865206F776E6572 PUSH1 0x0 DUP3 ADD MSTORE POP JUMP JUMPDEST PUSH1 0x0 PUSH2 0x1298 PUSH1 0x20 DUP4 PUSH2 0xE20 JUMP JUMPDEST SWAP2 POP PUSH2 0x12A3 DUP3 PUSH2 0x1262 JUMP JUMPDEST PUSH1 0x20 DUP3 ADD SWAP1 POP SWAP2 SWAP1 POP JUMP JUMPDEST PUSH1 0x0 PUSH1 0x20 DUP3 ADD SWAP1 POP DUP2 DUP2 SUB PUSH1 0x0 DUP4 ADD MSTORE PUSH2 0x12C7 DUP2 PUSH2 0x128B JUMP JUMPDEST SWAP1 POP SWAP2 SWAP1 POP JUMP JUMPDEST PUSH32 0x5265656E7472616E637947756172643A207265656E7472616E742063616C6C00 PUSH1 0x0 DUP3 ADD MSTORE POP JUMP JUMPDEST PUSH1 0x0 PUSH2 0x1304 PUSH1 0x1F DUP4 PUSH2 0xE20 JUMP JUMPDEST SWAP2 POP PUSH2 0x130F DUP3 PUSH2 0x12CE JUMP JUMPDEST PUSH1 0x20 DUP3 ADD SWAP1 POP SWAP2 SWAP1 POP JUMP JUMPDEST PUSH1 0x0 PUSH1 0x20 DUP3 ADD SWAP1 POP DUP2 DUP2 SUB PUSH1 0x0 DUP4 ADD MSTORE PUSH2 0x1333 DUP2 PUSH2 0x12F7 JUMP JUMPDEST SWAP1 POP SWAP2 SWAP1 POP JUMP INVALID LOG2 PUSH5 0x6970667358 0x22 SLT KECCAK256 0xB6 LOG0 DUP7 GT PUSH3 0xFE5493 TIMESTAMP 0xB6 SAR 0xAB 0xD3 0xC1 RETURNDATASIZE PUSH30 0xDACE553007CD94EFF127AC05A1B876CF64736F6C63430008110033000000 "},"methodIdentifiers":{"MAX_VOTES_PER_WINDOW()":"0d1a8ecd","VOTE_COOLDOWN()":"403644f3","VOTE_WINDOW()":"469a78d2","freezeArticle(uint256)":"05016a00","getArticleVotes(uint256)":"5603e67d","getUserVote(uint256,address)":"03c7881a","getVotesInTimeWindow(uint256)":"6e17dd43","isArticleFrozen(uint256)":"cfa03bbb","owner()":"8da5cb5b","renounceOwnership()":"715018a6","transferOwnership(address)":"f2fde38b","unfreezeArticle(uint256)":"34a8146a","vote(uint256,bool)":"c9d27afe"}}}}}