{
  "_format": "hh-sol-artifact-1",
  "contractName": "VotingSystem",
  "sourceName": "contracts/VotingSystem.sol",
  "abi": [
    {
      "anonymous": false,
      "inputs": [
        {
          "indexed": true,
          "internalType": "uint256",
          "name": "articleId",
          "type": "uint256"
        },
        {
          "indexed": false,
          "internalType": "uint256",
          "name": "timestamp",
          "type": "uint256"
        }
      ],
      "name": "ArticleFrozen",
      "type": "event"
    },
    {
      "anonymous": false,
      "inputs": [
        {
          "indexed": true,
          "internalType": "uint256",
          "name": "articleId",
          "type": "uint256"
        },
        {
          "indexed": false,
          "internalType": "uint256",
          "name": "timestamp",
          "type": "uint256"
        }
      ],
      "name": "ArticleUnfrozen",
      "type": "event"
    },
    {
      "anonymous": false,
      "inputs": [
        {
          "indexed": true,
          "internalType": "address",
          "name": "previousOwner",
          "type": "address"
        },
        {
          "indexed": true,
          "internalType": "address",
          "name": "newOwner",
          "type": "address"
        }
      ],
      "name": "OwnershipTransferred",
      "type": "event"
    },
    {
      "anonymous": false,
      "inputs": [
        {
          "indexed": true,
          "internalType": "uint256",
          "name": "articleId",
          "type": "uint256"
        },
        {
          "indexed": true,
          "internalType": "address",
          "name": "voter",
          "type": "address"
        },
        {
          "indexed": false,
          "internalType": "bool",
          "name": "isUpvote",
          "type": "bool"
        }
      ],
      "name": "VoteCast",
      "type": "event"
    },
    {
      "inputs": [],
      "name": "MAX_VOTES_IN_WINDOW",
      "outputs": [
        {
          "internalType": "uint256",
          "name": "",
          "type": "uint256"
        }
      ],
      "stateMutability": "view",
      "type": "function"
    },
    {
      "inputs": [],
      "name": "TIME_WINDOW",
      "outputs": [
        {
          "internalType": "uint256",
          "name": "",
          "type": "uint256"
        }
      ],
      "stateMutability": "view",
      "type": "function"
    },
    {
      "inputs": [
        {
          "internalType": "uint256",
          "name": "_articleId",
          "type": "uint256"
        }
      ],
      "name": "getArticleStatus",
      "outputs": [
        {
          "internalType": "string",
          "name": "status",
          "type": "string"
        },
        {
          "internalType": "uint256",
          "name": "upvotes",
          "type": "uint256"
        },
        {
          "internalType": "uint256",
          "name": "downvotes",
          "type": "uint256"
        },
        {
          "internalType": "bool",
          "name": "isFrozen",
          "type": "bool"
        }
      ],
      "stateMutability": "view",
      "type": "function"
    },
    {
      "inputs": [
        {
          "internalType": "uint256",
          "name": "_articleId",
          "type": "uint256"
        },
        {
          "internalType": "address",
          "name": "_user",
          "type": "address"
        }
      ],
      "name": "hasUserVoted",
      "outputs": [
        {
          "internalType": "bool",
          "name": "",
          "type": "bool"
        },
        {
          "internalType": "bool",
          "name": "",
          "type": "bool"
        }
      ],
      "stateMutability": "view",
      "type": "function"
    },
    {
      "inputs": [],
      "name": "owner",
      "outputs": [
        {
          "internalType": "address",
          "name": "",
          "type": "address"
        }
      ],
      "stateMutability": "view",
      "type": "function"
    },
    {
      "inputs": [],
      "name": "renounceOwnership",
      "outputs": [],
      "stateMutability": "nonpayable",
      "type": "function"
    },
    {
      "inputs": [
        {
          "internalType": "address",
          "name": "newOwner",
          "type": "address"
        }
      ],
      "name": "transferOwnership",
      "outputs": [],
      "stateMutability": "nonpayable",
      "type": "function"
    },
    {
      "inputs": [
        {
          "internalType": "uint256",
          "name": "_articleId",
          "type": "uint256"
        }
      ],
      "name": "unfreezeArticle",
      "outputs": [],
      "stateMutability": "nonpayable",
      "type": "function"
    },
    {
      "inputs": [
        {
          "internalType": "uint256",
          "name": "_articleId",
          "type": "uint256"
        },
        {
          "internalType": "bool",
          "name": "_isUpvote",
          "type": "bool"
        }
      ],
      "name": "vote",
      "outputs": [],
      "stateMutability": "nonpayable",
      "type": "function"
    }
  ],
  "bytecode": "0x608060405234801561001057600080fd5b5061002d61002261003960201b60201c565b61004160201b60201c565b60018081905550610105565b600033905090565b60008060009054906101000a900473ffffffffffffffffffffffffffffffffffffffff169050816000806101000a81548173ffffffffffffffffffffffffffffffffffffffff021916908373ffffffffffffffffffffffffffffffffffffffff1602179055508173ffffffffffffffffffffffffffffffffffffffff168173ffffffffffffffffffffffffffffffffffffffff167f8be0079c531659141344cd1fd0a4f28419497f9722a3daafe3b4186f6b6457e060405160405180910390a35050565b611135806101146000396000f3fe608060405234801561001057600080fd5b50600436106100935760003560e01c80638da5cb5b116100665780638da5cb5b146100fa578063c9d27afe14610118578063d451b60914610134578063dc296ae114610167578063f2fde38b1461019857610093565b80632e60d9311461009857806334a8146a146100b65780636e1a478a146100d2578063715018a6146100f0575b600080fd5b6100a06101b4565b6040516100ad9190610a5d565b60405180910390f35b6100d060048036038101906100cb9190610aa9565b6101b9565b005b6100da6102c5565b6040516100e79190610a5d565b60405180910390f35b6100f86102ca565b005b6101026102de565b60405161010f9190610b17565b60405180910390f35b610132600480360381019061012d9190610b6a565b610307565b005b61014e60048036038101906101499190610aa9565b6105fc565b60405161015e9493929190610c49565b60405180910390f35b610181600480360381019061017c9190610cc1565b61077c565b60405161018f929190610d01565b60405180910390f35b6101b260048036038101906101ad9190610d2a565b61081f565b005b607881565b6101c16108a2565b6002600082815260200190815260200160002060040160009054906101000a900460ff16610224576040517f08c379a000000000000000000000000000000000000000000000000000000000815260040161021b90610da3565b60405180910390fd5b60006002600083815260200190815260200160002060040160006101000a81548160ff02191690831515021790555060006002600083815260200190815260200160002060030181905550426002600083815260200190815260200160002060020181905550807fb8fa57662c7798f813008436099bc939136e85ea523644d8ef0381ad41dd7ad5426040516102ba9190610a5d565b60405180910390a250565b600581565b6102d26108a2565b6102dc6000610920565b565b60008060009054906101000a900473ffffffffffffffffffffffffffffffffffffffff16905090565b61030f6109e4565b816002600082815260200190815260200160002060040160009054906101000a900460ff1615610374576040517f08c379a000000000000000000000000000000000000000000000000000000000815260040161036b90610e0f565b60405180910390fd5b8260006002600083815260200190815260200160002060050160003373ffffffffffffffffffffffffffffffffffffffff1673ffffffffffffffffffffffffffffffffffffffff168152602001908152602001600020600101541461040e576040517f08c379a000000000000000000000000000000000000000000000000000000000815260040161040590610e7b565b60405180910390fd5b600060026000868152602001908152602001600020905060788160020154426104379190610eca565b111561044c57600181600301819055506104cf565b80600301600081548092919061046190610efe565b91905055506005816003015411156104ce5760018160040160006101000a81548160ff021916908315150217905550847fe63c62c0927da4e3292341064fc5139061dbabf6398047ffc028967c68857f85426040516104c09190610a5d565b60405180910390a2506105ee565b5b83156104f4578060000160008154809291906104ea90610efe565b919050555061050f565b80600101600081548092919061050990610efe565b91905055505b60405180604001604052808515158152602001428152508160050160003373ffffffffffffffffffffffffffffffffffffffff1673ffffffffffffffffffffffffffffffffffffffff16815260200190815260200160002060008201518160000160006101000a81548160ff021916908315150217905550602082015181600101559050504281600201819055503373ffffffffffffffffffffffffffffffffffffffff16857fe71fcdac32df1877c1700e7bda2a03157e20993363a28fc35ac495cefc76e4d4866040516105e49190610f46565b60405180910390a3505b50506105f8610a33565b5050565b606060008060008060026000878152602001908152602001600020905060008160010154826000015461062f9190610f61565b905060606005821015610679576040518060400160405280600881526020017f6469737075746564000000000000000000000000000000000000000000000000815250905061074d565b82600101548360000154036106c5576040518060400160405280600781526020017f70656e64696e6700000000000000000000000000000000000000000000000000815250905061074c565b826001015483600001541115610712576040518060400160405280600881526020017f7665726966696564000000000000000000000000000000000000000000000000815250905061074b565b6040518060400160405280600881526020017f646973707574656400000000000000000000000000000000000000000000000081525090505b5b5b80836000015484600101548560040160009054906101000a900460ff1696509650965096505050509193509193565b60008060006002600086815260200190815260200160002060050160008573ffffffffffffffffffffffffffffffffffffffff1673ffffffffffffffffffffffffffffffffffffffff1681526020019081526020016000206040518060400160405290816000820160009054906101000a900460ff1615151515815260200160018201548152505090506000816020015111816000015192509250509250929050565b6108276108a2565b600073ffffffffffffffffffffffffffffffffffffffff168173ffffffffffffffffffffffffffffffffffffffff1603610896576040517f08c379a000000000000000000000000000000000000000000000000000000000815260040161088d90611007565b60405180910390fd5b61089f81610920565b50565b6108aa610a3c565b73ffffffffffffffffffffffffffffffffffffffff166108c86102de565b73ffffffffffffffffffffffffffffffffffffffff161461091e576040517f08c379a000000000000000000000000000000000000000000000000000000000815260040161091590611073565b60405180910390fd5b565b60008060009054906101000a900473ffffffffffffffffffffffffffffffffffffffff169050816000806101000a81548173ffffffffffffffffffffffffffffffffffffffff021916908373ffffffffffffffffffffffffffffffffffffffff1602179055508173ffffffffffffffffffffffffffffffffffffffff168173ffffffffffffffffffffffffffffffffffffffff167f8be0079c531659141344cd1fd0a4f28419497f9722a3daafe3b4186f6b6457e060405160405180910390a35050565b600260015403610a29576040517f08c379a0000000000000000000000000000000000000000000000000000000008152600401610a20906110df565b60405180910390fd5b6002600181905550565b60018081905550565b600033905090565b6000819050919050565b610a5781610a44565b82525050565b6000602082019050610a726000830184610a4e565b92915050565b600080fd5b610a8681610a44565b8114610a9157600080fd5b50565b600081359050610aa381610a7d565b92915050565b600060208284031215610abf57610abe610a78565b5b6000610acd84828501610a94565b91505092915050565b600073ffffffffffffffffffffffffffffffffffffffff82169050919050565b6000610b0182610ad6565b9050919050565b610b1181610af6565b82525050565b6000602082019050610b2c6000830184610b08565b92915050565b60008115159050919050565b610b4781610b32565b8114610b5257600080fd5b50565b600081359050610b6481610b3e565b92915050565b60008060408385031215610b8157610b80610a78565b5b6000610b8f85828601610a94565b9250506020610ba085828601610b55565b9150509250929050565b600081519050919050565b600082825260208201905092915050565b60005b83811015610be4578082015181840152602081019050610bc9565b60008484015250505050565b6000601f19601f8301169050919050565b6000610c0c82610baa565b610c168185610bb5565b9350610c26818560208601610bc6565b610c2f81610bf0565b840191505092915050565b610c4381610b32565b82525050565b60006080820190508181036000830152610c638187610c01565b9050610c726020830186610a4e565b610c7f6040830185610a4e565b610c8c6060830184610c3a565b95945050505050565b610c9e81610af6565b8114610ca957600080fd5b50565b600081359050610cbb81610c95565b92915050565b60008060408385031215610cd857610cd7610a78565b5b6000610ce685828601610a94565b9250506020610cf785828601610cac565b9150509250929050565b6000604082019050610d166000830185610c3a565b610d236020830184610c3a565b9392505050565b600060208284031215610d4057610d3f610a78565b5b6000610d4e84828501610cac565b91505092915050565b7f41727469636c65206973206e6f742066726f7a656e0000000000000000000000600082015250565b6000610d8d601583610bb5565b9150610d9882610d57565b602082019050919050565b60006020820190508181036000830152610dbc81610d80565b9050919050565b7f41727469636c6520766f74696e672069732066726f7a656e0000000000000000600082015250565b6000610df9601883610bb5565b9150610e0482610dc3565b602082019050919050565b60006020820190508181036000830152610e2881610dec565b9050919050565b7f416c726561647920766f74656400000000000000000000000000000000000000600082015250565b6000610e65600d83610bb5565b9150610e7082610e2f565b602082019050919050565b60006020820190508181036000830152610e9481610e58565b9050919050565b7f4e487b7100000000000000000000000000000000000000000000000000000000600052601160045260246000fd5b6000610ed582610a44565b9150610ee083610a44565b9250828203905081811115610ef857610ef7610e9b565b5b92915050565b6000610f0982610a44565b91507fffffffffffffffffffffffffffffffffffffffffffffffffffffffffffffffff8203610f3b57610f3a610e9b565b5b600182019050919050565b6000602082019050610f5b6000830184610c3a565b92915050565b6000610f6c82610a44565b9150610f7783610a44565b9250828201905080821115610f8f57610f8e610e9b565b5b92915050565b7f4f776e61626c653a206e6577206f776e657220697320746865207a65726f206160008201527f6464726573730000000000000000000000000000000000000000000000000000602082015250565b6000610ff1602683610bb5565b9150610ffc82610f95565b604082019050919050565b6000602082019050818103600083015261102081610fe4565b9050919050565b7f4f776e61626c653a2063616c6c6572206973206e6f7420746865206f776e6572600082015250565b600061105d602083610bb5565b915061106882611027565b602082019050919050565b6000602082019050818103600083015261108c81611050565b9050919050565b7f5265656e7472616e637947756172643a207265656e7472616e742063616c6c00600082015250565b60006110c9601f83610bb5565b91506110d482611093565b602082019050919050565b600060208201905081810360008301526110f8816110bc565b905091905056fea264697066735822122073b8f3167208c7ff7433a1051fad3bb539dc59d7c40eb1eb8bf49e92b6c177c564736f6c63430008110033",
  "linkReferences": {},
  "deployedLinkReferences": {}
}