{
  "_format": "hh-sol-artifact-1",
  "contractName": "VotingSystem",
  "sourceName": "contracts/VotingSystem.sol",
  "abi": [
    {
      "anonymous": false,
      "inputs": [
        {
          "indexed": true,
          "internalType": "uint256",
          "name": "articleId",
          "type": "uint256"
        },
        {
          "indexed": false,
          "internalType": "uint256",
          "name": "timestamp",
          "type": "uint256"
        }
      ],
      "name": "ArticleFrozen",
      "type": "event"
    },
    {
      "anonymous": false,
      "inputs": [
        {
          "indexed": true,
          "internalType": "uint256",
          "name": "articleId",
          "type": "uint256"
        },
        {
          "indexed": false,
          "internalType": "uint256",
          "name": "timestamp",
          "type": "uint256"
        }
      ],
      "name": "ArticleUnfrozen",
      "type": "event"
    },
    {
      "anonymous": false,
      "inputs": [
        {
          "indexed": true,
          "internalType": "address",
          "name": "previousOwner",
          "type": "address"
        },
        {
          "indexed": true,
          "internalType": "address",
          "name": "newOwner",
          "type": "address"
        }
      ],
      "name": "OwnershipTransferred",
      "type": "event"
    },
    {
      "anonymous": false,
      "inputs": [
        {
          "indexed": true,
          "internalType": "uint256",
          "name": "articleId",
          "type": "uint256"
        },
        {
          "indexed": true,
          "internalType": "address",
          "name": "voter",
          "type": "address"
        },
        {
          "indexed": false,
          "internalType": "bool",
          "name": "isUpvote",
          "type": "bool"
        },
        {
          "indexed": false,
          "internalType": "uint256",
          "name": "timestamp",
          "type": "uint256"
        }
      ],
      "name": "VoteCast",
      "type": "event"
    },
    {
      "inputs": [],
      "name": "MAX_VOTES_PER_WINDOW",
      "outputs": [
        {
          "internalType": "uint256",
          "name": "",
          "type": "uint256"
        }
      ],
      "stateMutability": "view",
      "type": "function"
    },
    {
      "inputs": [],
      "name": "VOTE_COOLDOWN",
      "outputs": [
        {
          "internalType": "uint256",
          "name": "",
          "type": "uint256"
        }
      ],
      "stateMutability": "view",
      "type": "function"
    },
    {
      "inputs": [],
      "name": "VOTE_WINDOW",
      "outputs": [
        {
          "internalType": "uint256",
          "name": "",
          "type": "uint256"
        }
      ],
      "stateMutability": "view",
      "type": "function"
    },
    {
      "inputs": [
        {
          "internalType": "uint256",
          "name": "_articleId",
          "type": "uint256"
        }
      ],
      "name": "freezeArticle",
      "outputs": [],
      "stateMutability": "nonpayable",
      "type": "function"
    },
    {
      "inputs": [
        {
          "internalType": "uint256",
          "name": "_articleId",
          "type": "uint256"
        }
      ],
      "name": "getArticleVotes",
      "outputs": [
        {
          "internalType": "uint256",
          "name": "upvotes",
          "type": "uint256"
        },
        {
          "internalType": "uint256",
          "name": "downvotes",
          "type": "uint256"
        }
      ],
      "stateMutability": "view",
      "type": "function"
    },
    {
      "inputs": [
        {
          "internalType": "uint256",
          "name": "_articleId",
          "type": "uint256"
        },
        {
          "internalType": "address",
          "name": "_user",
          "type": "address"
        }
      ],
      "name": "getUserVote",
      "outputs": [
        {
          "internalType": "bool",
          "name": "isUpvote",
          "type": "bool"
        },
        {
          "internalType": "uint256",
          "name": "timestamp",
          "type": "uint256"
        }
      ],
      "stateMutability": "view",
      "type": "function"
    },
    {
      "inputs": [
        {
          "internalType": "uint256",
          "name": "_articleId",
          "type": "uint256"
        }
      ],
      "name": "getVotesInTimeWindow",
      "outputs": [
        {
          "internalType": "uint256",
          "name": "",
          "type": "uint256"
        }
      ],
      "stateMutability": "view",
      "type": "function"
    },
    {
      "inputs": [
        {
          "internalType": "uint256",
          "name": "_articleId",
          "type": "uint256"
        }
      ],
      "name": "isArticleFrozen",
      "outputs": [
        {
          "internalType": "bool",
          "name": "",
          "type": "bool"
        }
      ],
      "stateMutability": "view",
      "type": "function"
    },
    {
      "inputs": [],
      "name": "owner",
      "outputs": [
        {
          "internalType": "address",
          "name": "",
          "type": "address"
        }
      ],
      "stateMutability": "view",
      "type": "function"
    },
    {
      "inputs": [],
      "name": "renounceOwnership",
      "outputs": [],
      "stateMutability": "nonpayable",
      "type": "function"
    },
    {
      "inputs": [
        {
          "internalType": "address",
          "name": "newOwner",
          "type": "address"
        }
      ],
      "name": "transferOwnership",
      "outputs": [],
      "stateMutability": "nonpayable",
      "type": "function"
    },
    {
      "inputs": [
        {
          "internalType": "uint256",
          "name": "_articleId",
          "type": "uint256"
        }
      ],
      "name": "unfreezeArticle",
      "outputs": [],
      "stateMutability": "nonpayable",
      "type": "function"
    },
    {
      "inputs": [
        {
          "internalType": "uint256",
          "name": "_articleId",
          "type": "uint256"
        },
        {
          "internalType": "bool",
          "name": "_isUpvote",
          "type": "bool"
        }
      ],
      "name": "vote",
      "outputs": [],
      "stateMutability": "nonpayable",
      "type": "function"
    }
  ],
  "bytecode": "0x608060405234801561001057600080fd5b5061002d61002261003960201b60201c565b61004160201b60201c565b60018081905550610105565b600033905090565b60008060009054906101000a900473ffffffffffffffffffffffffffffffffffffffff169050816000806101000a81548173ffffffffffffffffffffffffffffffffffffffff021916908373ffffffffffffffffffffffffffffffffffffffff1602179055508173ffffffffffffffffffffffffffffffffffffffff168173ffffffffffffffffffffffffffffffffffffffff167f8be0079c531659141344cd1fd0a4f28419497f9722a3daafe3b4186f6b6457e060405160405180910390a35050565b611370806101146000396000f3fe608060405234801561001057600080fd5b50600436106100cf5760003560e01c80635603e67d1161008c5780638da5cb5b116100665780638da5cb5b14610202578063c9d27afe14610220578063cfa03bbb1461023c578063f2fde38b1461026c576100cf565b80635603e67d146101975780636e17dd43146101c8578063715018a6146101f8576100cf565b806303c7881a146100d457806305016a00146101055780630d1a8ecd1461012157806334a8146a1461013f578063403644f31461015b578063469a78d214610179575b600080fd5b6100ee60048036038101906100e99190610c3e565b610288565b6040516100fc929190610ca8565b60405180910390f35b61011f600480360381019061011a9190610cd1565b610305565b005b610129610436565b6040516101369190610cfe565b60405180910390f35b61015960048036038101906101549190610cd1565b61043b565b005b61016361056b565b6040516101709190610cfe565b60405180910390f35b610181610571565b60405161018e9190610cfe565b60405180910390f35b6101b160048036038101906101ac9190610cd1565b610578565b6040516101bf929190610d19565b60405180910390f35b6101e260048036038101906101dd9190610cd1565b6105a6565b6040516101ef9190610cfe565b60405180910390f35b6102006105ef565b005b61020a610603565b6040516102179190610d51565b60405180910390f35b61023a60048036038101906102359190610d98565b61062c565b005b61025660048036038101906102519190610cd1565b610953565b6040516102639190610dd8565b60405180910390f35b61028660048036038101906102819190610df3565b610980565b005b60008060006002600086815260200190815260200160002060050160008573ffffffffffffffffffffffffffffffffffffffff1673ffffffffffffffffffffffffffffffffffffffff16815260200190815260200160002090508060000160009054906101000a900460ff16816001015492509250509250929050565b61030d610a03565b806000600260008381526020019081526020016000206002015403610367576040517f08c379a000000000000000000000000000000000000000000000000000000000815260040161035e90610e7d565b60405180910390fd5b6002600083815260200190815260200160002060040160009054906101000a900460ff16156103cb576040517f08c379a00000000000000000000000000000000000000000000000000000000081526004016103c290610ee9565b60405180910390fd5b60016002600084815260200190815260200160002060040160006101000a81548160ff021916908315150217905550817fe63c62c0927da4e3292341064fc5139061dbabf6398047ffc028967c68857f854260405161042a9190610cfe565b60405180910390a25050565b606481565b610443610a03565b80600060026000838152602001908152602001600020600201540361049d576040517f08c379a000000000000000000000000000000000000000000000000000000000815260040161049490610e7d565b60405180910390fd5b6002600083815260200190815260200160002060040160009054906101000a900460ff16610500576040517f08c379a00000000000000000000000000000000000000000000000000000000081526004016104f790610f55565b60405180910390fd5b60006002600084815260200190815260200160002060040160006101000a81548160ff021916908315150217905550817fb8fa57662c7798f813008436099bc939136e85ea523644d8ef0381ad41dd7ad54260405161055f9190610cfe565b60405180910390a25050565b610e1081565b6201518081565b6000806000600260008581526020019081526020016000209050806000015481600101549250925050915091565b6000806002600084815260200190815260200160002090506201518081600201546105d19190610fa4565b42106105e15760009150506105ea565b80600301549150505b919050565b6105f7610a03565b6106016000610a81565b565b60008060009054906101000a900473ffffffffffffffffffffffffffffffffffffffff16905090565b610634610b45565b816002600082815260200190815260200160002060040160009054906101000a900460ff1615610699576040517f08c379a000000000000000000000000000000000000000000000000000000000815260040161069090611024565b60405180910390fd5b600060026000858152602001908152602001600020905060008160020154036106c6574281600201819055505b60008160050160003373ffffffffffffffffffffffffffffffffffffffff1673ffffffffffffffffffffffffffffffffffffffff168152602001908152602001600020600101541461074d576040517f08c379a000000000000000000000000000000000000000000000000000000000815260040161074490611090565b60405180910390fd5b610e10816002015461075f9190610fa4565b4210156107a1576040517f08c379a0000000000000000000000000000000000000000000000000000000008152600401610798906110fc565b60405180910390fd5b6201518081600201546107b49190610fa4565b42106107c557600081600301819055505b606481600301541061080c576040517f08c379a000000000000000000000000000000000000000000000000000000000815260040161080390611168565b60405180910390fd5b82156108315780600001600081548092919061082790611188565b919050555061084c565b80600101600081548092919061084690611188565b91905055505b60405180604001604052808415158152602001428152508160050160003373ffffffffffffffffffffffffffffffffffffffff1673ffffffffffffffffffffffffffffffffffffffff16815260200190815260200160002060008201518160000160006101000a81548160ff021916908315150217905550602082015181600101559050504281600201819055508060030160008154809291906108ef90611188565b91905055503373ffffffffffffffffffffffffffffffffffffffff16847fcbdf6214089cba887ecbf35a0b6a734589959c9763342c756bb2a80ca2bc9f6e854260405161093d929190610ca8565b60405180910390a3505061094f610b94565b5050565b60006002600083815260200190815260200160002060040160009054906101000a900460ff169050919050565b610988610a03565b600073ffffffffffffffffffffffffffffffffffffffff168173ffffffffffffffffffffffffffffffffffffffff16036109f7576040517f08c379a00000000000000000000000000000000000000000000000000000000081526004016109ee90611242565b60405180910390fd5b610a0081610a81565b50565b610a0b610b9d565b73ffffffffffffffffffffffffffffffffffffffff16610a29610603565b73ffffffffffffffffffffffffffffffffffffffff1614610a7f576040517f08c379a0000000000000000000000000000000000000000000000000000000008152600401610a76906112ae565b60405180910390fd5b565b60008060009054906101000a900473ffffffffffffffffffffffffffffffffffffffff169050816000806101000a81548173ffffffffffffffffffffffffffffffffffffffff021916908373ffffffffffffffffffffffffffffffffffffffff1602179055508173ffffffffffffffffffffffffffffffffffffffff168173ffffffffffffffffffffffffffffffffffffffff167f8be0079c531659141344cd1fd0a4f28419497f9722a3daafe3b4186f6b6457e060405160405180910390a35050565b600260015403610b8a576040517f08c379a0000000000000000000000000000000000000000000000000000000008152600401610b819061131a565b60405180910390fd5b6002600181905550565b60018081905550565b600033905090565b600080fd5b6000819050919050565b610bbd81610baa565b8114610bc857600080fd5b50565b600081359050610bda81610bb4565b92915050565b600073ffffffffffffffffffffffffffffffffffffffff82169050919050565b6000610c0b82610be0565b9050919050565b610c1b81610c00565b8114610c2657600080fd5b50565b600081359050610c3881610c12565b92915050565b60008060408385031215610c5557610c54610ba5565b5b6000610c6385828601610bcb565b9250506020610c7485828601610c29565b9150509250929050565b60008115159050919050565b610c9381610c7e565b82525050565b610ca281610baa565b82525050565b6000604082019050610cbd6000830185610c8a565b610cca6020830184610c99565b9392505050565b600060208284031215610ce757610ce6610ba5565b5b6000610cf584828501610bcb565b91505092915050565b6000602082019050610d136000830184610c99565b92915050565b6000604082019050610d2e6000830185610c99565b610d3b6020830184610c99565b9392505050565b610d4b81610c00565b82525050565b6000602082019050610d666000830184610d42565b92915050565b610d7581610c7e565b8114610d8057600080fd5b50565b600081359050610d9281610d6c565b92915050565b60008060408385031215610daf57610dae610ba5565b5b6000610dbd85828601610bcb565b9250506020610dce85828601610d83565b9150509250929050565b6000602082019050610ded6000830184610c8a565b92915050565b600060208284031215610e0957610e08610ba5565b5b6000610e1784828501610c29565b91505092915050565b600082825260208201905092915050565b7f41727469636c6520646f6573206e6f7420657869737400000000000000000000600082015250565b6000610e67601683610e20565b9150610e7282610e31565b602082019050919050565b60006020820190508181036000830152610e9681610e5a565b9050919050565b7f41727469636c6520616c72656164792066726f7a656e00000000000000000000600082015250565b6000610ed3601683610e20565b9150610ede82610e9d565b602082019050919050565b60006020820190508181036000830152610f0281610ec6565b9050919050565b7f41727469636c65206e6f742066726f7a656e0000000000000000000000000000600082015250565b6000610f3f601283610e20565b9150610f4a82610f09565b602082019050919050565b60006020820190508181036000830152610f6e81610f32565b9050919050565b7f4e487b7100000000000000000000000000000000000000000000000000000000600052601160045260246000fd5b6000610faf82610baa565b9150610fba83610baa565b9250828201905080821115610fd257610fd1610f75565b5b92915050565b7f41727469636c652069732066726f7a656e000000000000000000000000000000600082015250565b600061100e601183610e20565b915061101982610fd8565b602082019050919050565b6000602082019050818103600083015261103d81611001565b9050919050565b7f416c726561647920766f74656400000000000000000000000000000000000000600082015250565b600061107a600d83610e20565b915061108582611044565b602082019050919050565b600060208201905081810360008301526110a98161106d565b9050919050565b7f566f746520636f6f6c646f776e20616374697665000000000000000000000000600082015250565b60006110e6601483610e20565b91506110f1826110b0565b602082019050919050565b60006020820190508181036000830152611115816110d9565b9050919050565b7f4d617820766f74657320696e2077696e646f7720726561636865640000000000600082015250565b6000611152601b83610e20565b915061115d8261111c565b602082019050919050565b6000602082019050818103600083015261118181611145565b9050919050565b600061119382610baa565b91507fffffffffffffffffffffffffffffffffffffffffffffffffffffffffffffffff82036111c5576111c4610f75565b5b600182019050919050565b7f4f776e61626c653a206e6577206f776e657220697320746865207a65726f206160008201527f6464726573730000000000000000000000000000000000000000000000000000602082015250565b600061122c602683610e20565b9150611237826111d0565b604082019050919050565b6000602082019050818103600083015261125b8161121f565b9050919050565b7f4f776e61626c653a2063616c6c6572206973206e6f7420746865206f776e6572600082015250565b6000611298602083610e20565b91506112a382611262565b602082019050919050565b600060208201905081810360008301526112c78161128b565b9050919050565b7f5265656e7472616e637947756172643a207265656e7472616e742063616c6c00600082015250565b6000611304601f83610e20565b915061130f826112ce565b602082019050919050565b60006020820190508181036000830152611333816112f7565b905091905056fea2646970667358221220b6a0861162fe549342b61dabd3c13d7ddace553007cd94eff127ac05a1b876cf64736f6c63430008110033",
  "linkReferences": {},
  "deployedLinkReferences": {}
}